:020000040000FA
:100000000C945D000C947A000C947A000C947A00A5
:100010000C947A000C947A000C947A000C940D02E3
:100020000C947A000C947A000C947A000C947A0068
:100030000C947A000C9469020C947A000C947A0067
:100040000C94C3010C947A000C947A000C947A00FE
:100050000C947A000C947A000C947A000C947A0038
:100060000C947A000C947A0002000000080002014F
:100070000000030407000000000000000000000072
:1000800000250028002B0000000000240027002A83
:100090000004040404040404040202020202020331
:1000A000030303030301020408102040800102043B
:1000B0000810200102040810200011241FBECFEFF9
:1000C000D8E0DEBFCDBF11E0A0E0B1E0E6E5F1E1B0
:1000D00002C005900D92A637B107D9F721E0A6E737
:1000E000B1E001C01D92AE39B207E1F70E94910262
:1000F0000C94A9080C94000090E0FC01EB55FF4F14
:1001000024918F569F4FFC018491882399F090E0B1
:10011000880F991FFC01E957FF4FA591B491FC018D
:10012000E358FF4F859194918FB7F894EC91E22BAF
:10013000EC938FBF089590E0FC01E759FF4F2491A5
:10014000FC01EB55FF4F3491FC01EF56FF4FE4915A
:10015000EE23C9F0222339F0233001F1A8F4213035
:1001600019F1223029F1F0E0EE0FFF1FE358FF4FA5
:10017000A591B4918FB7F894EC91611126C0309598
:100180003E233C938FBF08952730A9F02830C9F053
:10019000243049F7809180008F7D03C080918000DA
:1001A0008F7780938000DFCF84B58F7784BDDBCFDE
:1001B00084B58F7DFBCF8091B0008F778093B000A6
:1001C000D2CF8091B0008F7DF9CF3E2BDACF3FB7F1
:1001D000F89480919A0190919B01A0919C01B0911B
:1001E0009D0126B5A89B05C02F3F19F00196A11DC2
:1001F000B11D3FBFBA2FA92F982F8827BC01CD0171
:10020000620F711D811D911D42E0660F771F881FCF
:10021000991F4A95D1F708959091000189130BC059
:10022000E8E6F0E0E4919FEF90930001E13049F0BF
:1002300028F0E23061F060E00C949B0010926E00B8
:10024000FACF90916F009D7F90936F00F4CF9091C3
:1002500070009D7F9093700091E09093B00090911A
:10026000B100987F94609093B1001092B300E3CFF7
:10027000809176019091770181309105D1F01CF445
:10028000892B39F008958230910539F10397D9F11E
:10029000089581E090E0909377018093760160E08B
:1002A0008EE00E949B0061E08FE00E949B0060E076
:1002B0000FC082E090E0909377018093760160E038
:1002C0008EE00E949B0060E08FE00E949B0061E056
:1002D00080E10E949B0060E013C083E090E0909377
:1002E00077018093760160E08EE00E949B0060E0E1
:1002F0008FE00E949B0060E080E10E949B0061E033
:1003000081E10C949B00109277011092760161E0DC
:100310008EE00E949B0060E0C7CF0F931F93CF93A6
:10032000DF93082F162FD42FC8E06D2F661F662786
:10033000661F802F0E949B00DD0F61E0812F0E94CD
:100340009B0060E0812F0E949B00C15071F7DF91FC
:10035000CF911F910F910895CF93DF93EC0160E04F
:100360008AE00E949B004D2F6DE08BE00E948D0182
:100370004C2F6DE08BE00E948D0161E08AE0DF91FF
:10038000CF910C949B001F920F920FB60F921124E5
:100390002F933F938F939F93AF93BF938091960139
:1003A00090919701A0919801B09199013091950198
:1003B00023E0230F2D3758F50196A11DB11D209381
:1003C00095018093960190939701A0939801B09323
:1003D000990180919A0190919B01A0919C01B0910B
:1003E0009D010196A11DB11D80939A0190939B01DF
:1003F000A0939C01B0939D01BF91AF919F918F916C
:100400003F912F910F900FBE0F901F90189526E8E7
:10041000230F0296A11DB11DD2CF1F920F920FB6CE
:100420000F9211242F933F934F935F936F937F937A
:100430008F939F93AF93BF93EF93FF9380917F012F
:1004400090918001A0918101B0918201892B8A2B2A
:100450008B2BD1F190917A01E0917B01F0917C019D
:1004600080818927808380917F0190918001A09174
:100470008101B0918201181619061A061B069CF418
:1004800080917F0190918001A0918101B0918201C2
:100490000197A109B10980937F0190938001A093F6
:1004A0008101B0938201FF91EF91BF91AF919F9134
:1004B0008F917F916F915F914F913F912F910F900D
:1004C0000FBE0F901F901895809100010E940C01A3
:1004D000EACF1F920F920FB60F9211248F939F9322
:1004E00080917801909179018230910564F40196B0
:1004F00090937901809378019F918F910F900FBE17
:100500000F901F90189510927901109278018091A8
:1005100091019091920101969093920180939101A3
:10052000EBCFCF93DF9300D000D01F92CDB7DEB7D3
:10053000789484B5826084BD84B5816084BD85B5BE
:10054000826085BD85B5816085BD80916E008160CA
:1005500080936E0010928100809181008260809370
:100560008100809181008160809381008091800072
:100570008160809380008091B10084608093B1009D
:100580008091B00081608093B00080917A00846097
:1005900080937A0080917A00826080937A008091C3
:1005A0007A00816080937A0080917A0080688093DD
:1005B0007A001092C1001092790110927801109285
:1005C0009201109291011092900110928F0110925D
:1005D0008E0110928D0110929401109293018EE081
:1005E0000E947C008FE00E947C0080E10E947C00E1
:1005F00081E10E947C008AE00E947C008DE00E94E4
:100600007C008BE00E947C0061E08EE00E949B00F9
:1006100060E08FE00E949B0060E080E10E949B0010
:1006200060E081E10E949B0083E00E947C00F894DE
:1006300010928000109281008091810084608093EC
:1006400081008091810081608093810081E08093AE
:100650006F00789420919301309194012C313105F1
:1006600008F009C3220F331FF901E35CFE4F6081DC
:10067000718188EE93E00E947A081B012B01770FAD
:10068000660877082B5F3E4FF90100811181809148
:100690000001833009F0BFC0E8E6F0E0F491FD838B
:1006A000F7FDA0C183E00E947C002D81222321F070
:1006B0008D81823009F0B9C14801B12CA12C60E0D4
:1006C00072E18AE790E0A50198010E94E60629837D
:1006D0003A834B835C8369017A0191E0C91AD1089E
:1006E000E108F108EFEFCE16D104E104F10409F0BE
:1006F0000CF450C160E472E48FE090E0A501980131
:100700000E94E60669017A01F1E0CF1AD108E108FA
:10071000F1082D81223009F0F1C08FEFC816D10405
:10072000E104F10409F00CF4ABC260E970ED83E080
:1007300090E0A50198010E94E60669017A0191E026
:10074000C91AD108E108F10883E0EFEFCE16D10411
:10075000E104F10409F00CF457C068E478EE81E09C
:1007600090E0A50198010E94E60669017A01E1E0A6
:10077000CE1AD108E108F10884E0FFEFCF16D104CA
:10078000E104F10409F00CF43FC064E274EF80E08E
:1007900090E0A50194010E94E60669017A01E1E07A
:1007A000CE1AD108E108F10885E0FFEFCF16D10499
:1007B000E104F10449F140F162E17AE780E090E080
:1007C000A50194010E94E60669017A0181E0C81A38
:1007D000D108E108F10886E09FEFC916D104E104D1
:1007E000F10491F088F0C980DA80EB80FC809AE017
:1007F000F594E794D794C7949A95D1F781E0C81AF5
:10080000D108E108F10887E09091B100987F892B29
:100810008093B100C7C08F3F09F0E4C083E08093AC
:100820000001E8E6F0E0F491FD83FF3F09F4DAC04F
:10083000F13021F150F0F23009F43EC02D8127FD56
:10084000D1C083E00E947C0033CF14BC15BC84B5BA
:10085000826084BD85B5816085BDE4E9F0E0E49106
:10086000F0E0EE0FFF1FE358FF4F85919491E8EA07
:10087000F0E0E491E0937E011D8214CF109280009D
:100880001092810080918100886080938100809126
:100890008100816080938100E4E9F0E0E491F0E080
:1008A000EE0FFF1FE358FF4F85919491E8EAF0E0C7
:1008B000E491E0937D01F6CE1092B0001092B10069
:1008C0008091B00082608093B0008091B10081601F
:1008D0008093B100E4E9F0E0E491F0E0EE0FFF1F57
:1008E000E358FF4F8591949190937C0180937B0115
:1008F000E8EAF0E0E491E0937A01D4CEFFEFCF167E
:10090000D104E104F10409F00CF48DC068E478EE40
:1009100081E090E0A50198010E94E60669017A0154
:1009200081E0C81AD108E108F1089D8184E09111A5
:100930003CCF83E0EFEFCE16D104E104F10471F176
:100940006CF162E17AE780E090E0A50194010E94F9
:10095000E60669017A01F1E0CF1AD108E108F10851
:1009600084E02FEFC216D104E104F104B9F0B0F035
:10097000C980DA80EB80FC808AE0F594E794D79414
:10098000C7948A95D1F791E0C91AD108E108F10816
:1009900085E004C081E09D81911136CF95B5987FA7
:1009A000892B85BD2FEF3FEFA9014114510461044C
:1009B000710409F074C0FD81F13009F47DC0F2309A
:1009C00009F48CC0F1110EC0C7BC2093870130938D
:1009D00088014093890150938A0180916E00826062
:1009E00080936E00C301B2010E94810726E636E6BD
:1009F00046EA5FE30E94E5070E9449074B01009128
:100A00009101109192010130110509F4A6C00CF07A
:100A100075C08FEF9FEF012B09F40EC11092920168
:100A200010929101C0C082E0B6CFB12CA12C60E041
:100A300072E18AE790E0A50198010E94E60669014B
:100A40007A01E1E0CE1AD108E108F10891E0C11481
:100A5000D104F1E0EF06F10484F068E478EE81E07F
:100A600090E0A50198010E94E60669017A0181E003
:100A7000C81AD108E108F10893E0ED81E13009F0EE
:100A800091CF80918100887F892B809381002FEF07
:100A90003FEFA901411451046104710469F0980108
:100AA000220F331FD1010E948E0828EE33E040E070
:100AB00050E00E9418077FCFD0928900C092880032
:100AC00020938301309384014093850150938601E4
:100AD00080916F00826080936F0084CFC092B300DA
:100AE00020937F01309380014093810150938201D4
:100AF0008091700082608093700074CF0230110585
:100B000009F48BC00330110509F088CF00918F01E3
:100B1000109190010830110508F07AC08FEF9FEF17
:100B20000E94AC0180918D0190918E0186309105DB
:100B300008F087C010928E0110928D0100FD06C052
:100B400090E080E00E94AC010E9438010F5F1F4FCF
:100B50001093900100938F0126C0E0908F01F090D8
:100B600090012FEFE216F10411F008F051C08091CE
:100B70008B0190918C0130E020E081319105C4F12E
:100B80000E94380190E080E0019690938C01809360
:100B90008B01C8010E94AC018FEFE81AF80AF092AD
:100BA0009001E0928F016401990CEE08FF080E9409
:100BB000E7004B015C01C114D104E104F10409F424
:100BC00046C00E94E700681979098A099B09683EB6
:100BD00073408105910578F391E0C91AD108E108C5
:100BE000F108E8EE8E0EE3E09E1EA11CB11CE3CFDF
:100BF000281739074CF641E050E0022E02C0440F9E
:100C0000551F0A94E2F7042B152B2F5F3F4FF0CFAF
:100C10001092900110928F01C6CF80918F01909118
:100C200090014097A8F70E948E062FEF3FEF40E01B
:100C300050E00E94E606CB010E94AC010E94380100
:100C4000B2CF019690938E0180938D01ACCF83E05B
:100C50000E940C01809193019091940101969093D0
:100C600094018093930180E090E0892B09F4F2CC09
:100C70000E940000EFCC1092940110929301F3CFE8
:100C800082E0C2CD8F929F92AF92BF92CF92DF92BD
:100C9000EF92FF92CF93DF93EC01688179818A8193
:100CA0009B81611571058105910521F464E279ED5F
:100CB0008BE597E02DE133EF41E050E00E94E6063E
:100CC00049015A019B01AC01A7EAB1E40E94050762
:100CD0006B017C01ACEEB4EFA50194010E941307F7
:100CE000C60ED71EE81EF91EF7FE06C081E0C81A20
:100CF000D108E10880E8F80AC882D982EA82FB823A
:100D0000C701B6019F77DF91CF91FF90EF90DF9001
:100D1000CF90BF90AF909F908F9008958F929F92A9
:100D2000AF92BF92CF92DF92EF92FF92609101015A
:100D30007091020180910301909104016115710588
:100D40008105910521F464E279ED8BE597E02DE1D1
:100D500033EF41E050E00E94E60649015A019B0151
:100D6000AC01A7EAB1E40E9405076B017C01ACEE7F
:100D7000B4EFA50194010E941307C60ED71EE81E0A
:100D8000F91EF7FE06C081E0C81AD108E10880E824
:100D9000F80AC0920101D0920201E0920301F092A0
:100DA0000401C701B6019F77FF90EF90DF90CF90CD
:100DB000BF90AF909F908F900895609301017093C2
:100DC000020180930301909304010895052E97FB7F
:100DD0001EF400940E94FD0657FD07D00E941807DC
:100DE00007FC03D04EF40C94FD06509540953095C9
:100DF00021953F4F4F4F5F4F089590958095709587
:100E000061957F4F8F4F9F4F08950E943A07A59F8E
:100E1000900DB49F900DA49F800D911D11240895F5
:100E2000B7FF0C9405070E940507821B930B0895DA
:100E3000A1E21A2EAA1BBB1BFD010DC0AA1FBB1FDE
:100E4000EE1FFF1FA217B307E407F50720F0A21B50
:100E5000B30BE40BF50B661F771F881F991F1A94BD
:100E600069F760957095809590959B01AC01BD01E7
:100E7000CF010895A29FB001B39FC001A39F700D41
:100E8000811D1124911DB29F700D811D1124911D92
:100E900008950E9450076894B1110C94DF070895DB
:100EA0000E94C40788F09F5798F0B92F9927B7512F
:100EB000B0F0E1F0660F771F881F991F1AF0BA95FE
:100EC000C9F714C0B13091F00E94DE07B1E0089577
:100ED0000C94DE07672F782F8827B85F39F0B93F69
:100EE000CCF3869577956795B395D9F73EF49095B1
:100EF0008095709561957F4F8F4F9F4F0895E8942F
:100F000009C097FB3EF490958095709561957F4F51
:100F10008F4F9F4F9923A9F0F92F96E9BB279395FF
:100F2000F695879577956795B795F111F8CFFAF40F
:100F3000BB0F11F460FF1BC06F5F7F4F8F4F9F4F40
:100F400016C0882311F096E911C0772321F09EE89E
:100F5000872F762F05C0662371F096E8862F70E004
:100F600060E02AF09A95660F771F881FDAF7880FDE
:100F70009695879597F9089557FD9058440F551FFA
:100F800059F05F3F71F04795880F97FB991F61F00B
:100F90009F3F79F087950895121613061406551F82
:100FA000F2CF4695F1DF08C0161617061806991FEE
:100FB000F1CF86957105610508940895E894BB27E3
:100FC00066277727CB0197F908950E94F8070C94BC
:100FD00069080E945B0838F00E94620820F095239F
:100FE00011F00C9452080C94580811240C94DF074B
:100FF0000E94BC0770F3959FC1F3950F50E0551FF9
:10100000629FF001729FBB27F00DB11D639FAA275D
:10101000F00DB11DAA1F649F6627B00DA11D661FAC
:10102000829F2227B00DA11D621F739FB00DA11DCD
:10103000621F839FA00D611D221F749F3327A00D87
:10104000611D231F849F600D211D822F762F6A2F23
:1010500011249F5750409AF0F1F088234AF0EE0F88
:10106000FF1FBB1F661F771F881F91505040A9F7B5
:101070009E3F510580F00C9452080C94DF075F3FAF
:10108000E4F3983ED4F3869577956795B795F795F1
:10109000E7959F5FC1F7FE2B880F911D9695879569
:1010A00097F9089597F99F6780E870E060E00895E8
:1010B0009FEF80EC089500240A9416161706180670
:1010C0000906089500240A9412161306140605064C
:1010D0000895092E0394000C11F4882352F0BB0FDD
:1010E00040F4BF2B11F460FF04C06F5F7F4F8F4F40
:1010F0009F4F089597FB072E16F4009407D077FDB5
:1011000009D00E94950807FC05D03EF49095819582
:101110009F4F0895709561957F4F08950E943A07FB
:10112000B7FF0895821B930B0895AA1BBB1B51E1C7
:1011300007C0AA1FBB1FA617B70710F0A61BB70B47
:10114000881F991F5A95A9F780959095BC01CD01EC
:101150000895F894FFCFFF010000000601B801B820
:10116000018801B8015D01060106010601B801B858
:1011700001D20188010B020B0226012601D201D205
:1011800001B80188015D010601B801B8018801B804
:10119000015D0104000400040004000400040004D4
:1011A0000004000400040004000400040002000421
:1011B000000400040004000400040004000400040F
:0C11C00000040004000400040002000011
:107E0000112484B714BE81FFF0D085E080938100F7
:107E100082E08093C00088E18093C10086E0809377
:107E2000C20080E18093C4008EE0C9D0259A86E02C
:107E300020E33CEF91E0309385002093840096BBD3
:107E4000B09BFECF1D9AA8958150A9F7CC24DD24C4
:107E500088248394B5E0AB2EA1E19A2EF3E0BF2EE7
:107E6000A2D0813461F49FD0082FAFD0023811F036
:107E7000013811F484E001C083E08DD089C08234E0
:107E800011F484E103C0853419F485E0A6D080C0E4
:107E9000853579F488D0E82EFF2485D0082F10E0AE
:107EA000102F00270E291F29000F111F8ED06801E7
:107EB0006FC0863521F484E090D080E0DECF843638
:107EC00009F040C070D06FD0082F6DD080E0C81688
:107ED00080E7D80618F4F601B7BEE895C0E0D1E017
:107EE00062D089930C17E1F7F0E0CF16F0E7DF06D8
:107EF00018F0F601B7BEE89568D007B600FCFDCFD4
:107F0000A601A0E0B1E02C9130E011968C91119780
:107F100090E0982F8827822B932B1296FA010C0160
:107F200087BEE89511244E5F5F4FF1E0A038BF0790
:107F300051F7F601A7BEE89507B600FCFDCF97BE46
:107F4000E89526C08437B1F42ED02DD0F82E2BD052
:107F50003CD0F601EF2C8F010F5F1F4F84911BD097
:107F6000EA94F801C1F70894C11CD11CFA94CF0C13
:107F7000D11C0EC0853739F428D08EE10CD085E9AC
:107F80000AD08FE07ACF813511F488E018D01DD067
:107F900080E101D065CF982F8091C00085FFFCCF94
:107FA0009093C60008958091C00087FFFCCF809118
:107FB000C00084FD01C0A8958091C6000895E0E648
:107FC000F0E098E1908380830895EDDF803219F02E
:107FD00088E0F5DFFFCF84E1DECF1F93182FE3DFCA
:107FE0001150E9F7F2DF1F91089580E0E8DFEE27F6
:047FF000FF270994CA
:027FFE00040479
:00000001FF
